{
  "contractName": "NFT",
  "abi": [
    {
      "inputs": [
        {
          "internalType": "string",
          "name": "_name",
          "type": "string"
        },
        {
          "internalType": "string",
          "name": "_symbol",
          "type": "string"
        }
      ],
      "stateMutability": "nonpayable",
      "type": "constructor"
    },
    {
      "anonymous": false,
      "inputs": [
        {
          "indexed": true,
          "internalType": "address",
          "name": "owner",
          "type": "address"
        },
        {
          "indexed": true,
          "internalType": "address",
          "name": "approved",
          "type": "address"
        },
        {
          "indexed": true,
          "internalType": "uint256",
          "name": "tokenId",
          "type": "uint256"
        }
      ],
      "name": "Approval",
      "type": "event"
    },
    {
      "anonymous": false,
      "inputs": [
        {
          "indexed": true,
          "internalType": "address",
          "name": "owner",
          "type": "address"
        },
        {
          "indexed": true,
          "internalType": "address",
          "name": "operator",
          "type": "address"
        },
        {
          "indexed": false,
          "internalType": "bool",
          "name": "approved",
          "type": "bool"
        }
      ],
      "name": "ApprovalForAll",
      "type": "event"
    },
    {
      "anonymous": false,
      "inputs": [
        {
          "indexed": true,
          "internalType": "address",
          "name": "_owner",
          "type": "address"
        },
        {
          "indexed": false,
          "internalType": "uint256",
          "name": "_tokenId",
          "type": "uint256"
        },
        {
          "indexed": false,
          "internalType": "string",
          "name": "_name",
          "type": "string"
        }
      ],
      "name": "AuctionStarted",
      "type": "event"
    },
    {
      "anonymous": false,
      "inputs": [
        {
          "indexed": true,
          "internalType": "address",
          "name": "from",
          "type": "address"
        },
        {
          "indexed": true,
          "internalType": "address",
          "name": "to",
          "type": "address"
        },
        {
          "indexed": true,
          "internalType": "uint256",
          "name": "tokenId",
          "type": "uint256"
        }
      ],
      "name": "Transfer",
      "type": "event"
    },
    {
      "inputs": [
        {
          "internalType": "address",
          "name": "to",
          "type": "address"
        },
        {
          "internalType": "uint256",
          "name": "tokenId",
          "type": "uint256"
        }
      ],
      "name": "approve",
      "outputs": [],
      "stateMutability": "nonpayable",
      "type": "function"
    },
    {
      "inputs": [
        {
          "internalType": "address",
          "name": "owner",
          "type": "address"
        }
      ],
      "name": "balanceOf",
      "outputs": [
        {
          "internalType": "uint256",
          "name": "",
          "type": "uint256"
        }
      ],
      "stateMutability": "view",
      "type": "function"
    },
    {
      "inputs": [
        {
          "internalType": "uint256",
          "name": "",
          "type": "uint256"
        }
      ],
      "name": "biders",
      "outputs": [
        {
          "internalType": "uint256",
          "name": "bidAmnt",
          "type": "uint256"
        },
        {
          "internalType": "address payable",
          "name": "biderAddress",
          "type": "address"
        }
      ],
      "stateMutability": "view",
      "type": "function"
    },
    {
      "inputs": [
        {
          "internalType": "uint256",
          "name": "tokenId",
          "type": "uint256"
        }
      ],
      "name": "getApproved",
      "outputs": [
        {
          "internalType": "address",
          "name": "",
          "type": "address"
        }
      ],
      "stateMutability": "view",
      "type": "function"
    },
    {
      "inputs": [
        {
          "internalType": "address",
          "name": "owner",
          "type": "address"
        },
        {
          "internalType": "address",
          "name": "operator",
          "type": "address"
        }
      ],
      "name": "isApprovedForAll",
      "outputs": [
        {
          "internalType": "bool",
          "name": "",
          "type": "bool"
        }
      ],
      "stateMutability": "view",
      "type": "function"
    },
    {
      "inputs": [],
      "name": "name",
      "outputs": [
        {
          "internalType": "string",
          "name": "",
          "type": "string"
        }
      ],
      "stateMutability": "view",
      "type": "function"
    },
    {
      "inputs": [],
      "name": "owner",
      "outputs": [
        {
          "internalType": "address",
          "name": "",
          "type": "address"
        }
      ],
      "stateMutability": "view",
      "type": "function"
    },
    {
      "inputs": [
        {
          "internalType": "uint256",
          "name": "tokenId",
          "type": "uint256"
        }
      ],
      "name": "ownerOf",
      "outputs": [
        {
          "internalType": "address",
          "name": "",
          "type": "address"
        }
      ],
      "stateMutability": "view",
      "type": "function"
    },
    {
      "inputs": [
        {
          "internalType": "address",
          "name": "from",
          "type": "address"
        },
        {
          "internalType": "address",
          "name": "to",
          "type": "address"
        },
        {
          "internalType": "uint256",
          "name": "tokenId",
          "type": "uint256"
        }
      ],
      "name": "safeTransferFrom",
      "outputs": [],
      "stateMutability": "nonpayable",
      "type": "function"
    },
    {
      "inputs": [
        {
          "internalType": "address",
          "name": "from",
          "type": "address"
        },
        {
          "internalType": "address",
          "name": "to",
          "type": "address"
        },
        {
          "internalType": "uint256",
          "name": "tokenId",
          "type": "uint256"
        },
        {
          "internalType": "bytes",
          "name": "data",
          "type": "bytes"
        }
      ],
      "name": "safeTransferFrom",
      "outputs": [],
      "stateMutability": "nonpayable",
      "type": "function"
    },
    {
      "inputs": [
        {
          "internalType": "address",
          "name": "operator",
          "type": "address"
        },
        {
          "internalType": "bool",
          "name": "approved",
          "type": "bool"
        }
      ],
      "name": "setApprovalForAll",
      "outputs": [],
      "stateMutability": "nonpayable",
      "type": "function"
    },
    {
      "inputs": [
        {
          "internalType": "bytes4",
          "name": "interfaceId",
          "type": "bytes4"
        }
      ],
      "name": "supportsInterface",
      "outputs": [
        {
          "internalType": "bool",
          "name": "",
          "type": "bool"
        }
      ],
      "stateMutability": "view",
      "type": "function"
    },
    {
      "inputs": [],
      "name": "symbol",
      "outputs": [
        {
          "internalType": "string",
          "name": "",
          "type": "string"
        }
      ],
      "stateMutability": "view",
      "type": "function"
    },
    {
      "inputs": [
        {
          "internalType": "uint256",
          "name": "tokenId",
          "type": "uint256"
        }
      ],
      "name": "tokenURI",
      "outputs": [
        {
          "internalType": "string",
          "name": "",
          "type": "string"
        }
      ],
      "stateMutability": "view",
      "type": "function"
    },
    {
      "inputs": [
        {
          "internalType": "address",
          "name": "from",
          "type": "address"
        },
        {
          "internalType": "address",
          "name": "to",
          "type": "address"
        },
        {
          "internalType": "uint256",
          "name": "tokenId",
          "type": "uint256"
        }
      ],
      "name": "transferFrom",
      "outputs": [],
      "stateMutability": "nonpayable",
      "type": "function"
    },
    {
      "inputs": [
        {
          "internalType": "string",
          "name": "_name",
          "type": "string"
        }
      ],
      "name": "mint",
      "outputs": [],
      "stateMutability": "nonpayable",
      "type": "function"
    },
    {
      "inputs": [
        {
          "internalType": "uint256",
          "name": "_tokenId",
          "type": "uint256"
        }
      ],
      "name": "getItemDetails",
      "outputs": [
        {
          "internalType": "address",
          "name": "currentOwner",
          "type": "address"
        },
        {
          "internalType": "address",
          "name": "previousOwner",
          "type": "address"
        },
        {
          "internalType": "string",
          "name": "name",
          "type": "string"
        },
        {
          "internalType": "uint256",
          "name": "tokenId",
          "type": "uint256"
        },
        {
          "internalType": "uint256",
          "name": "miniBid",
          "type": "uint256"
        },
        {
          "internalType": "uint32",
          "name": "mintTime",
          "type": "uint32"
        },
        {
          "internalType": "uint32",
          "name": "time",
          "type": "uint32"
        },
        {
          "internalType": "uint32",
          "name": "timePeriod",
          "type": "uint32"
        },
        {
          "internalType": "bool",
          "name": "exists",
          "type": "bool"
        },
        {
          "internalType": "bool",
          "name": "auctionStart",
          "type": "bool"
        }
      ],
      "stateMutability": "view",
      "type": "function"
    },
    {
      "inputs": [
        {
          "internalType": "uint256",
          "name": "_tokenId",
          "type": "uint256"
        },
        {
          "internalType": "uint256",
          "name": "_minBid",
          "type": "uint256"
        },
        {
          "internalType": "uint32",
          "name": "_timePeriod",
          "type": "uint32"
        }
      ],
      "name": "startAuction",
      "outputs": [],
      "stateMutability": "nonpayable",
      "type": "function"
    },
    {
      "inputs": [
        {
          "internalType": "uint256",
          "name": "_tokenId",
          "type": "uint256"
        }
      ],
      "name": "placeBid",
      "outputs": [
        {
          "internalType": "bool",
          "name": "success",
          "type": "bool"
        }
      ],
      "stateMutability": "payable",
      "type": "function"
    },
    {
      "inputs": [
        {
          "internalType": "uint256",
          "name": "_tokenId",
          "type": "uint256"
        }
      ],
      "name": "auctionResult",
      "outputs": [
        {
          "internalType": "uint256",
          "name": "",
          "type": "uint256"
        },
        {
          "internalType": "address",
          "name": "",
          "type": "address"
        }
      ],
      "stateMutability": "view",
      "type": "function"
    },
    {
      "inputs": [
        {
          "internalType": "uint256",
          "name": "_tokenId",
          "type": "uint256"
        }
      ],
      "name": "transferNFT",
      "outputs": [
        {
          "internalType": "bool",
          "name": "",
          "type": "bool"
        }
      ],
      "stateMutability": "nonpayable",
      "type": "function"
    },
    {
      "inputs": [
        {
          "internalType": "uint256",
          "name": "_tokenId",
          "type": "uint256"
        }
      ],
      "name": "withdrawal",
      "outputs": [],
      "stateMutability": "nonpayable",
      "type": "function"
    },
    {
      "inputs": [],
      "name": "getBalance",
      "outputs": [
        {
          "internalType": "uint256",
          "name": "",
          "type": "uint256"
        }
      ],
      "stateMutability": "view",
      "type": "function"
    }
  ],
  "bytecode": "0x60806040523480156200001157600080fd5b506040516200609b3803806200609b833981810160405281019062000037919062000303565b8181816000908051906020019062000051929190620000b6565b5080600190805190602001906200006a929190620000b6565b50505033600660006101000a81548173ffffffffffffffffffffffffffffffffffffffff021916908373ffffffffffffffffffffffffffffffffffffffff1602179055505050620003ec565b828054620000c490620003b7565b90600052602060002090601f016020900481019282620000e8576000855562000134565b82601f106200010357805160ff191683800117855562000134565b8280016001018555821562000134579182015b828111156200013357825182559160200191906001019062000116565b5b50905062000143919062000147565b5090565b5b808211156200016257600081600090555060010162000148565b5090565b6000604051905090565b600080fd5b600080fd5b600080fd5b600080fd5b6000601f19601f8301169050919050565b7f4e487b7100000000000000000000000000000000000000000000000000000000600052604160045260246000fd5b620001cf8262000184565b810181811067ffffffffffffffff82111715620001f157620001f062000195565b5b80604052505050565b60006200020662000166565b9050620002148282620001c4565b919050565b600067ffffffffffffffff82111562000237576200023662000195565b5b620002428262000184565b9050602081019050919050565b60005b838110156200026f57808201518184015260208101905062000252565b838111156200027f576000848401525b50505050565b60006200029c620002968462000219565b620001fa565b905082815260208101848484011115620002bb57620002ba6200017f565b5b620002c88482856200024f565b509392505050565b600082601f830112620002e857620002e76200017a565b5b8151620002fa84826020860162000285565b91505092915050565b600080604083850312156200031d576200031c62000170565b5b600083015167ffffffffffffffff8111156200033e576200033d62000175565b5b6200034c85828601620002d0565b925050602083015167ffffffffffffffff81111562000370576200036f62000175565b5b6200037e85828601620002d0565b9150509250929050565b7f4e487b7100000000000000000000000000000000000000000000000000000000600052602260045260246000fd5b60006002820490506001821680620003d057607f821691505b602082108103620003e657620003e562000388565b5b50919050565b615c9f80620003fc6000396000f3fe6080604052600436106101405760003560e01c806373004ca0116100b65780639979ef451161006f5780639979ef45146104b1578063a22cb465146104e1578063b88d4fde1461050a578063c87b56dd14610533578063d85d3d2714610570578063e985e9c51461059957610140565b806373004ca01461038557806379566968146103cb578063835fc6ca146104095780638da5cb5b14610432578063932894711461045d57806395d89b411461048657610140565b806312065fe01161010857806312065fe01461025157806323b872dd1461027c578063249e10c5146102a557806342842e0e146102e25780636352211e1461030b57806370a082311461034857610140565b806301ffc9a71461014557806306fdde0314610182578063081812fc146101ad578063095ea7b3146101ea5780630df06bc114610213575b600080fd5b34801561015157600080fd5b5061016c600480360381019061016791906146c9565b6105d6565b6040516101799190614711565b60405180910390f35b34801561018e57600080fd5b506101976106b8565b6040516101a491906147c5565b60405180910390f35b3480156101b957600080fd5b506101d460048036038101906101cf919061481d565b61074a565b6040516101e1919061488b565b60405180910390f35b3480156101f657600080fd5b50610211600480360381019061020c91906148d2565b610790565b005b34801561021f57600080fd5b5061023a6004803603810190610235919061481d565b6108a7565b604051610248929190614942565b60405180910390f35b34801561025d57600080fd5b506102666108eb565b604051610273919061496b565b60405180910390f35b34801561028857600080fd5b506102a3600480360381019061029e9190614986565b6108f3565b005b3480156102b157600080fd5b506102cc60048036038101906102c7919061481d565b610953565b6040516102d99190614711565b60405180910390f35b3480156102ee57600080fd5b5061030960048036038101906103049190614986565b611157565b005b34801561031757600080fd5b50610332600480360381019061032d919061481d565b611177565b60405161033f919061488b565b60405180910390f35b34801561035457600080fd5b5061036f600480360381019061036a91906149d9565b611228565b60405161037c919061496b565b60405180910390f35b34801561039157600080fd5b506103ac60048036038101906103a7919061481d565b6112df565b6040516103c29a99989796959493929190614a25565b60405180910390f35b3480156103d757600080fd5b506103f260048036038101906103ed919061481d565b6117c7565b604051610400929190614ac8565b60405180910390f35b34801561041557600080fd5b50610430600480360381019061042b919061481d565b611f95565b005b34801561043e57600080fd5b506104476122f2565b604051610454919061488b565b60405180910390f35b34801561046957600080fd5b50610484600480360381019061047f9190614b1d565b612318565b005b34801561049257600080fd5b5061049b61294b565b6040516104a891906147c5565b60405180910390f35b6104cb60048036038101906104c6919061481d565b6129dd565b6040516104d89190614711565b60405180910390f35b3480156104ed57600080fd5b5061050860048036038101906105039190614b9c565b6135ae565b005b34801561051657600080fd5b50610531600480360381019061052c9190614d11565b6135c4565b005b34801561053f57600080fd5b5061055a6004803603810190610555919061481d565b613626565b60405161056791906147c5565b60405180910390f35b34801561057c57600080fd5b5061059760048036038101906105929190614e35565b61368e565b005b3480156105a557600080fd5b506105c060048036038101906105bb9190614e7e565b6138d9565b6040516105cd9190614711565b60405180910390f35b60007f80ac58cd000000000000000000000000000000000000000000000000000000007bffffffffffffffffffffffffffffffffffffffffffffffffffffffff1916827bffffffffffffffffffffffffffffffffffffffffffffffffffffffff191614806106a157507f5b5e139f000000000000000000000000000000000000000000000000000000007bffffffffffffffffffffffffffffffffffffffffffffffffffffffff1916827bffffffffffffffffffffffffffffffffffffffffffffffffffffffff1916145b806106b157506106b08261396d565b5b9050919050565b6060600080546106c790614eed565b80601f01602080910402602001604051908101604052809291908181526020018280546106f390614eed565b80156107405780601f1061071557610100808354040283529160200191610740565b820191906000526020600020905b81548152906001019060200180831161072357829003601f168201915b5050505050905090565b6000610755826139d7565b6004600083815260200190815260200160002060009054906101000a900473ffffffffffffffffffffffffffffffffffffffff169050919050565b600061079b82611177565b90508073ffffffffffffffffffffffffffffffffffffffff168373ffffffffffffffffffffffffffffffffffffffff160361080b576040517f08c379a000000000000000000000000000000000000000000000000000000000815260040161080290614f90565b60405180910390fd5b8073ffffffffffffffffffffffffffffffffffffffff1661082a613a22565b73ffffffffffffffffffffffffffffffffffffffff161480610859575061085881610853613a22565b6138d9565b5b610898576040517f08c379a000000000000000000000000000000000000000000000000000000000815260040161088f90615022565b60405180910390fd5b6108a28383613a2a565b505050565b60096020528060005260406000206000915090508060000154908060010160009054906101000a900473ffffffffffffffffffffffffffffffffffffffff16905082565b600047905090565b6109046108fe613a22565b82613ae3565b610943576040517f08c379a000000000000000000000000000000000000000000000000000000000815260040161093a906150b4565b60405180910390fd5b61094e838383613b78565b505050565b600081600060086000838152602001908152602001600020604051806101400160405290816000820160009054906101000a900473ffffffffffffffffffffffffffffffffffffffff1673ffffffffffffffffffffffffffffffffffffffff1673ffffffffffffffffffffffffffffffffffffffff1681526020016001820160009054906101000a900473ffffffffffffffffffffffffffffffffffffffff1673ffffffffffffffffffffffffffffffffffffffff1673ffffffffffffffffffffffffffffffffffffffff168152602001600282018054610a3390614eed565b80601f0160208091040260200160405190810160405280929190818152602001828054610a5f90614eed565b8015610aac5780601f10610a8157610100808354040283529160200191610aac565b820191906000526020600020905b815481529060010190602001808311610a8f57829003601f168201915b5050505050815260200160038201548152602001600482015481526020016005820160009054906101000a900463ffffffff1663ffffffff1663ffffffff1681526020016005820160049054906101000a900463ffffffff1663ffffffff1663ffffffff1681526020016005820160089054906101000a900463ffffffff1663ffffffff1663ffffffff16815260200160058201600c9054906101000a900460ff1615151515815260200160058201600d9054906101000a900460ff1615151515815250509050806101000151610bb8576040517f08c379a0000000000000000000000000000000000000000000000000000000008152600401610baf90615120565b60405180910390fd5b83600060086000838152602001908152602001600020604051806101400160405290816000820160009054906101000a900473ffffffffffffffffffffffffffffffffffffffff1673ffffffffffffffffffffffffffffffffffffffff1673ffffffffffffffffffffffffffffffffffffffff1681526020016001820160009054906101000a900473ffffffffffffffffffffffffffffffffffffffff1673ffffffffffffffffffffffffffffffffffffffff1673ffffffffffffffffffffffffffffffffffffffff168152602001600282018054610c9690614eed565b80601f0160208091040260200160405190810160405280929190818152602001828054610cc290614eed565b8015610d0f5780601f10610ce457610100808354040283529160200191610d0f565b820191906000526020600020905b815481529060010190602001808311610cf257829003601f168201915b5050505050815260200160038201548152602001600482015481526020016005820160009054906101000a900463ffffffff1663ffffffff1663ffffffff1681526020016005820160049054906101000a900463ffffffff1663ffffffff1663ffffffff1681526020016005820160089054906101000a900463ffffffff1663ffffffff1663ffffffff16815260200160058201600c9054906101000a900460ff1615151515815260200160058201600d9054906101000a900460ff1615151515815250509050806000015173ffffffffffffffffffffffffffffffffffffffff163373ffffffffffffffffffffffffffffffffffffffff1614610e48576040517f08c379a0000000000000000000000000000000000000000000000000000000008152600401610e3f9061518c565b60405180910390fd5b600060096000888152602001908152602001600020905060006008600089815260200190815260200160002090508060050160089054906101000a900463ffffffff1663ffffffff16421015610ed3576040517f08c379a0000000000000000000000000000000000000000000000000000000008152600401610eca9061521e565b60405180910390fd5b610f268160000160009054906101000a900473ffffffffffffffffffffffffffffffffffffffff168360010160009054906101000a900473ffffffffffffffffffffffffffffffffffffffff168a611157565b8060000160009054906101000a900473ffffffffffffffffffffffffffffffffffffffff1673ffffffffffffffffffffffffffffffffffffffff166108fc83600001549081150290604051600060405180830381858888f19350505050158015610f94573d6000803e3d6000fd5b508060000160009054906101000a900473ffffffffffffffffffffffffffffffffffffffff168160010160006101000a81548173ffffffffffffffffffffffffffffffffffffffff021916908373ffffffffffffffffffffffffffffffffffffffff1602179055508160010160009054906101000a900473ffffffffffffffffffffffffffffffffffffffff168160000160006101000a81548173ffffffffffffffffffffffffffffffffffffffff021916908373ffffffffffffffffffffffffffffffffffffffff160217905550600081600501600d6101000a81548160ff0219169083151502179055506000600a60008a815260200190815260200160002060008360000160009054906101000a900473ffffffffffffffffffffffffffffffffffffffff1673ffffffffffffffffffffffffffffffffffffffff1673ffffffffffffffffffffffffffffffffffffffff168152602001908152602001600020819055506000826000018190555060008260010160006101000a81548173ffffffffffffffffffffffffffffffffffffffff021916908373ffffffffffffffffffffffffffffffffffffffff16021790555060019650505050505050919050565b611172838383604051806020016040528060008152506135c4565b505050565b6000806002600084815260200190815260200160002060009054906101000a900473ffffffffffffffffffffffffffffffffffffffff169050600073ffffffffffffffffffffffffffffffffffffffff168173ffffffffffffffffffffffffffffffffffffffff160361121f576040517f08c379a00000000000000000000000000000000000000000000000000000000081526004016112169061528a565b60405180910390fd5b80915050919050565b60008073ffffffffffffffffffffffffffffffffffffffff168273ffffffffffffffffffffffffffffffffffffffff1603611298576040517f08c379a000000000000000000000000000000000000000000000000000000000815260040161128f9061531c565b60405180910390fd5b600360008373ffffffffffffffffffffffffffffffffffffffff1673ffffffffffffffffffffffffffffffffffffffff168152602001908152602001600020549050919050565b600080606060008060008060008060008a600060086000838152602001908152602001600020604051806101400160405290816000820160009054906101000a900473ffffffffffffffffffffffffffffffffffffffff1673ffffffffffffffffffffffffffffffffffffffff1673ffffffffffffffffffffffffffffffffffffffff1681526020016001820160009054906101000a900473ffffffffffffffffffffffffffffffffffffffff1673ffffffffffffffffffffffffffffffffffffffff1673ffffffffffffffffffffffffffffffffffffffff1681526020016002820180546113cd90614eed565b80601f01602080910402602001604051908101604052809291908181526020018280546113f990614eed565b80156114465780601f1061141b57610100808354040283529160200191611446565b820191906000526020600020905b81548152906001019060200180831161142957829003601f168201915b5050505050815260200160038201548152602001600482015481526020016005820160009054906101000a900463ffffffff1663ffffffff1663ffffffff1681526020016005820160049054906101000a900463ffffffff1663ffffffff1663ffffffff1681526020016005820160089054906101000a900463ffffffff1663ffffffff1663ffffffff16815260200160058201600c9054906101000a900460ff1615151515815260200160058201600d9054906101000a900460ff1615151515815250509050806101000151611552576040517f08c379a000000000000000000000000000000000000000000000000000000000815260040161154990615120565b60405180910390fd5b6000600860008f8152602001908152602001600020604051806101400160405290816000820160009054906101000a900473ffffffffffffffffffffffffffffffffffffffff1673ffffffffffffffffffffffffffffffffffffffff1673ffffffffffffffffffffffffffffffffffffffff1681526020016001820160009054906101000a900473ffffffffffffffffffffffffffffffffffffffff1673ffffffffffffffffffffffffffffffffffffffff1673ffffffffffffffffffffffffffffffffffffffff16815260200160028201805461162f90614eed565b80601f016020809104026020016040519081016040528092919081815260200182805461165b90614eed565b80156116a85780601f1061167d576101008083540402835291602001916116a8565b820191906000526020600020905b81548152906001019060200180831161168b57829003601f168201915b5050505050815260200160038201548152602001600482015481526020016005820160009054906101000a900463ffffffff1663ffffffff1663ffffffff1681526020016005820160049054906101000a900463ffffffff1663ffffffff1663ffffffff1681526020016005820160089054906101000a900463ffffffff1663ffffffff1663ffffffff16815260200160058201600c9054906101000a900460ff1615151515815260200160058201600d9054906101000a900460ff1615151515815250509050806000015181602001518260400151836060015184608001518560a001518660c001518760e001518861010001518961012001519c509c509c509c509c509c509c509c509c509c505050509193959799509193959799565b60008082600060086000838152602001908152602001600020604051806101400160405290816000820160009054906101000a900473ffffffffffffffffffffffffffffffffffffffff1673ffffffffffffffffffffffffffffffffffffffff1673ffffffffffffffffffffffffffffffffffffffff1681526020016001820160009054906101000a900473ffffffffffffffffffffffffffffffffffffffff1673ffffffffffffffffffffffffffffffffffffffff1673ffffffffffffffffffffffffffffffffffffffff1681526020016002820180546118a890614eed565b80601f01602080910402602001604051908101604052809291908181526020018280546118d490614eed565b80156119215780601f106118f657610100808354040283529160200191611921565b820191906000526020600020905b81548152906001019060200180831161190457829003601f168201915b5050505050815260200160038201548152602001600482015481526020016005820160009054906101000a900463ffffffff1663ffffffff1663ffffffff1681526020016005820160049054906101000a900463ffffffff1663ffffffff1663ffffffff1681526020016005820160089054906101000a900463ffffffff1663ffffffff1663ffffffff16815260200160058201600c9054906101000a900460ff1615151515815260200160058201600d9054906101000a900460ff1615151515815250509050806101000151611a2d576040517f08c379a0000000000000000000000000000000000000000000000000000000008152600401611a2490615120565b60405180910390fd5b84600060086000838152602001908152602001600020604051806101400160405290816000820160009054906101000a900473ffffffffffffffffffffffffffffffffffffffff1673ffffffffffffffffffffffffffffffffffffffff1673ffffffffffffffffffffffffffffffffffffffff1681526020016001820160009054906101000a900473ffffffffffffffffffffffffffffffffffffffff1673ffffffffffffffffffffffffffffffffffffffff1673ffffffffffffffffffffffffffffffffffffffff168152602001600282018054611b0b90614eed565b80601f0160208091040260200160405190810160405280929190818152602001828054611b3790614eed565b8015611b845780601f10611b5957610100808354040283529160200191611b84565b820191906000526020600020905b815481529060010190602001808311611b6757829003601f168201915b5050505050815260200160038201548152602001600482015481526020016005820160009054906101000a900463ffffffff1663ffffffff1663ffffffff1681526020016005820160049054906101000a900463ffffffff1663ffffffff1663ffffffff1681526020016005820160089054906101000a900463ffffffff1663ffffffff1663ffffffff16815260200160058201600c9054906101000a900460ff1615151515815260200160058201600d9054906101000a900460ff1615151515815250509050806101200151611c90576040517f08c379a0000000000000000000000000000000000000000000000000000000008152600401611c8790615388565b60405180910390fd5b600060096000898152602001908152602001600020604051806040016040529081600082015481526020016001820160009054906101000a900473ffffffffffffffffffffffffffffffffffffffff1673ffffffffffffffffffffffffffffffffffffffff1673ffffffffffffffffffffffffffffffffffffffff168152505090506000600860008a8152602001908152602001600020604051806101400160405290816000820160009054906101000a900473ffffffffffffffffffffffffffffffffffffffff1673ffffffffffffffffffffffffffffffffffffffff1673ffffffffffffffffffffffffffffffffffffffff1681526020016001820160009054906101000a900473ffffffffffffffffffffffffffffffffffffffff1673ffffffffffffffffffffffffffffffffffffffff1673ffffffffffffffffffffffffffffffffffffffff168152602001600282018054611def90614eed565b80601f0160208091040260200160405190810160405280929190818152602001828054611e1b90614eed565b8015611e685780601f10611e3d57610100808354040283529160200191611e68565b820191906000526020600020905b815481529060010190602001808311611e4b57829003601f168201915b5050505050815260200160038201548152602001600482015481526020016005820160009054906101000a900463ffffffff1663ffffffff1663ffffffff1681526020016005820160049054906101000a900463ffffffff1663ffffffff1663ffffffff1681526020016005820160089054906101000a900463ffffffff1663ffffffff1663ffffffff16815260200160058201600c9054906101000a900460ff1615151515815260200160058201600d9054906101000a900460ff16151515158152505090508060e0015163ffffffff16421015611f7c576040517f08c379a0000000000000000000000000000000000000000000000000000000008152600401611f739061521e565b60405180910390fd5b8160000151826020015197509750505050505050915091565b80600060086000838152602001908152602001600020604051806101400160405290816000820160009054906101000a900473ffffffffffffffffffffffffffffffffffffffff1673ffffffffffffffffffffffffffffffffffffffff1673ffffffffffffffffffffffffffffffffffffffff1681526020016001820160009054906101000a900473ffffffffffffffffffffffffffffffffffffffff1673ffffffffffffffffffffffffffffffffffffffff1673ffffffffffffffffffffffffffffffffffffffff16815260200160028201805461207390614eed565b80601f016020809104026020016040519081016040528092919081815260200182805461209f90614eed565b80156120ec5780601f106120c1576101008083540402835291602001916120ec565b820191906000526020600020905b8154815290600101906020018083116120cf57829003601f168201915b5050505050815260200160038201548152602001600482015481526020016005820160009054906101000a900463ffffffff1663ffffffff1663ffffffff1681526020016005820160049054906101000a900463ffffffff1663ffffffff1663ffffffff1681526020016005820160089054906101000a900463ffffffff1663ffffffff1663ffffffff16815260200160058201600c9054906101000a900460ff1615151515815260200160058201600d9054906101000a900460ff16151515158152505090508061010001516121f8576040517f08c379a00000000000000000000000000000000000000000000000000000000081526004016121ef90615120565b60405180910390fd5b6001600a600085815260200190815260200160002060003373ffffffffffffffffffffffffffffffffffffffff1673ffffffffffffffffffffffffffffffffffffffff16815260200190815260200160002054101561225657600080fd5b3373ffffffffffffffffffffffffffffffffffffffff166108fc600a600086815260200190815260200160002060003373ffffffffffffffffffffffffffffffffffffffff1673ffffffffffffffffffffffffffffffffffffffff168152602001908152602001600020549081150290604051600060405180830381858888f193505050501580156122ec573d6000803e3d6000fd5b50505050565b600660009054906101000a900473ffffffffffffffffffffffffffffffffffffffff1681565b82600060086000838152602001908152602001600020604051806101400160405290816000820160009054906101000a900473ffffffffffffffffffffffffffffffffffffffff1673ffffffffffffffffffffffffffffffffffffffff1673ffffffffffffffffffffffffffffffffffffffff1681526020016001820160009054906101000a900473ffffffffffffffffffffffffffffffffffffffff1673ffffffffffffffffffffffffffffffffffffffff1673ffffffffffffffffffffffffffffffffffffffff1681526020016002820180546123f690614eed565b80601f016020809104026020016040519081016040528092919081815260200182805461242290614eed565b801561246f5780601f106124445761010080835404028352916020019161246f565b820191906000526020600020905b81548152906001019060200180831161245257829003601f168201915b5050505050815260200160038201548152602001600482015481526020016005820160009054906101000a900463ffffffff1663ffffffff1663ffffffff1681526020016005820160049054906101000a900463ffffffff1663ffffffff1663ffffffff1681526020016005820160089054906101000a900463ffffffff1663ffffffff1663ffffffff16815260200160058201600c9054906101000a900460ff1615151515815260200160058201600d9054906101000a900460ff161515151581525050905080610100015161257b576040517f08c379a000000000000000000000000000000000000000000000000000000000815260040161257290615120565b60405180910390fd5b84600060086000838152602001908152602001600020604051806101400160405290816000820160009054906101000a900473ffffffffffffffffffffffffffffffffffffffff1673ffffffffffffffffffffffffffffffffffffffff1673ffffffffffffffffffffffffffffffffffffffff1681526020016001820160009054906101000a900473ffffffffffffffffffffffffffffffffffffffff1673ffffffffffffffffffffffffffffffffffffffff1673ffffffffffffffffffffffffffffffffffffffff16815260200160028201805461265990614eed565b80601f016020809104026020016040519081016040528092919081815260200182805461268590614eed565b80156126d25780601f106126a7576101008083540402835291602001916126d2565b820191906000526020600020905b8154815290600101906020018083116126b557829003601f168201915b5050505050815260200160038201548152602001600482015481526020016005820160009054906101000a900463ffffffff1663ffffffff1663ffffffff1681526020016005820160049054906101000a900463ffffffff1663ffffffff1663ffffffff1681526020016005820160089054906101000a900463ffffffff1663ffffffff1663ffffffff16815260200160058201600c9054906101000a900460ff1615151515815260200160058201600d9054906101000a900460ff1615151515815250509050806000015173ffffffffffffffffffffffffffffffffffffffff163373ffffffffffffffffffffffffffffffffffffffff161461280b576040517f08c379a00000000000000000000000000000000000000000000000000000000081526004016128029061518c565b60405180910390fd5b60006008600089815260200190815260200160002090506000429050670de0b6b3a76400008861283b91906153d7565b8260040181905550808260050160046101000a81548163ffffffff021916908363ffffffff160217905550868260050160049054906101000a900463ffffffff166128869190615431565b8260050160086101000a81548163ffffffff021916908363ffffffff160217905550600182600501600d6101000a81548160ff0219169083151502179055508160000160009054906101000a900473ffffffffffffffffffffffffffffffffffffffff1673ffffffffffffffffffffffffffffffffffffffff167f61f245a25d792cdb27136d31a1252a6cc1aa7f8afae7d238bd202318f73c300d836003015484600201604051612938929190615500565b60405180910390a2505050505050505050565b60606001805461295a90614eed565b80601f016020809104026020016040519081016040528092919081815260200182805461298690614eed565b80156129d35780601f106129a8576101008083540402835291602001916129d3565b820191906000526020600020905b8154815290600101906020018083116129b657829003601f168201915b5050505050905090565b600081600060086000838152602001908152602001600020604051806101400160405290816000820160009054906101000a900473ffffffffffffffffffffffffffffffffffffffff1673ffffffffffffffffffffffffffffffffffffffff1673ffffffffffffffffffffffffffffffffffffffff1681526020016001820160009054906101000a900473ffffffffffffffffffffffffffffffffffffffff1673ffffffffffffffffffffffffffffffffffffffff1673ffffffffffffffffffffffffffffffffffffffff168152602001600282018054612abd90614eed565b80601f0160208091040260200160405190810160405280929190818152602001828054612ae990614eed565b8015612b365780601f10612b0b57610100808354040283529160200191612b36565b820191906000526020600020905b815481529060010190602001808311612b1957829003601f168201915b5050505050815260200160038201548152602001600482015481526020016005820160009054906101000a900463ffffffff1663ffffffff1663ffffffff1681526020016005820160049054906101000a900463ffffffff1663ffffffff1663ffffffff1681526020016005820160089054906101000a900463ffffffff1663ffffffff1663ffffffff16815260200160058201600c9054906101000a900460ff1615151515815260200160058201600d9054906101000a900460ff1615151515815250509050806101000151612c42576040517f08c379a0000000000000000000000000000000000000000000000000000000008152600401612c3990615120565b60405180910390fd5b83600060086000838152602001908152602001600020604051806101400160405290816000820160009054906101000a900473ffffffffffffffffffffffffffffffffffffffff1673ffffffffffffffffffffffffffffffffffffffff1673ffffffffffffffffffffffffffffffffffffffff1681526020016001820160009054906101000a900473ffffffffffffffffffffffffffffffffffffffff1673ffffffffffffffffffffffffffffffffffffffff1673ffffffffffffffffffffffffffffffffffffffff168152602001600282018054612d2090614eed565b80601f0160208091040260200160405190810160405280929190818152602001828054612d4c90614eed565b8015612d995780601f10612d6e57610100808354040283529160200191612d99565b820191906000526020600020905b815481529060010190602001808311612d7c57829003601f168201915b5050505050815260200160038201548152602001600482015481526020016005820160009054906101000a900463ffffffff1663ffffffff1663ffffffff1681526020016005820160049054906101000a900463ffffffff1663ffffffff1663ffffffff1681526020016005820160089054906101000a900463ffffffff1663ffffffff1663ffffffff16815260200160058201600c9054906101000a900460ff1615151515815260200160058201600d9054906101000a900460ff1615151515815250509050806101200151612ea5576040517f08c379a0000000000000000000000000000000000000000000000000000000008152600401612e9c90615388565b60405180910390fd5b85600060086000838152602001908152602001600020604051806101400160405290816000820160009054906101000a900473ffffffffffffffffffffffffffffffffffffffff1673ffffffffffffffffffffffffffffffffffffffff1673ffffffffffffffffffffffffffffffffffffffff1681526020016001820160009054906101000a900473ffffffffffffffffffffffffffffffffffffffff1673ffffffffffffffffffffffffffffffffffffffff1673ffffffffffffffffffffffffffffffffffffffff168152602001600282018054612f8390614eed565b80601f0160208091040260200160405190810160405280929190818152602001828054612faf90614eed565b8015612ffc5780601f10612fd157610100808354040283529160200191612ffc565b820191906000526020600020905b815481529060010190602001808311612fdf57829003601f168201915b5050505050815260200160038201548152602001600482015481526020016005820160009054906101000a900463ffffffff1663ffffffff1663ffffffff1681526020016005820160049054906101000a900463ffffffff1663ffffffff1663ffffffff1681526020016005820160089054906101000a900463ffffffff1663ffffffff1663ffffffff16815260200160058201600c9054906101000a900460ff1615151515815260200160058201600d9054906101000a900460ff1615151515815250509050806000015173ffffffffffffffffffffffffffffffffffffffff163373ffffffffffffffffffffffffffffffffffffffff1603613135576040517f08c379a000000000000000000000000000000000000000000000000000000000815260040161312c9061557c565b60405180910390fd5b87600060086000838152602001908152602001600020604051806101400160405290816000820160009054906101000a900473ffffffffffffffffffffffffffffffffffffffff1673ffffffffffffffffffffffffffffffffffffffff1673ffffffffffffffffffffffffffffffffffffffff1681526020016001820160009054906101000a900473ffffffffffffffffffffffffffffffffffffffff1673ffffffffffffffffffffffffffffffffffffffff1673ffffffffffffffffffffffffffffffffffffffff16815260200160028201805461321390614eed565b80601f016020809104026020016040519081016040528092919081815260200182805461323f90614eed565b801561328c5780601f106132615761010080835404028352916020019161328c565b820191906000526020600020905b81548152906001019060200180831161326f57829003601f168201915b5050505050815260200160038201548152602001600482015481526020016005820160009054906101000a900463ffffffff1663ffffffff1663ffffffff1681526020016005820160049054906101000a900463ffffffff1663ffffffff1663ffffffff1681526020016005820160089054906101000a900463ffffffff1663ffffffff1663ffffffff16815260200160058201600c9054906101000a900460ff1615151515815260200160058201600d9054906101000a900460ff161515151581525050905080608001513411613399576040517f08c379a00000000000000000000000000000000000000000000000000000000081526004016133909061560e565b60405180910390fd5b600034036133a657600080fd5b6000600960008c815260200190815260200160002090506000600860008d815260200190815260200160002090508060050160089054906101000a900463ffffffff1663ffffffff16421115613431576040517f08c379a00000000000000000000000000000000000000000000000000000000081526004016134289061567a565b60405180910390fd5b600034600a60008f815260200190815260200160002060003373ffffffffffffffffffffffffffffffffffffffff1673ffffffffffffffffffffffffffffffffffffffff1681526020019081526020016000205461348f919061569a565b9050826000015481116134a157600080fd5b8260010160009054906101000a900473ffffffffffffffffffffffffffffffffffffffff1673ffffffffffffffffffffffffffffffffffffffff163373ffffffffffffffffffffffffffffffffffffffff161461353c57338360010160006101000a81548173ffffffffffffffffffffffffffffffffffffffff021916908373ffffffffffffffffffffffffffffffffffffffff1602179055505b80600a60008f815260200190815260200160002060003373ffffffffffffffffffffffffffffffffffffffff1673ffffffffffffffffffffffffffffffffffffffff1681526020019081526020016000208190555080836000018190555060019b505050505050505050505050919050565b6135c06135b9613a22565b8383613e09565b5050565b6135d56135cf613a22565b83613ae3565b613614576040517f08c379a000000000000000000000000000000000000000000000000000000000815260040161360b906150b4565b60405180910390fd5b61362084848484613f75565b50505050565b6060613631826139d7565b600061363b613fd1565b9050600081511161365b5760405180602001604052806000815250613686565b8061366584613fe8565b60405160200161367692919061572c565b6040516020818303038152906040525b915050919050565b6000429050600760008154809291906136a690615750565b91905055506040518061014001604052803373ffffffffffffffffffffffffffffffffffffffff168152602001600073ffffffffffffffffffffffffffffffffffffffff1681526020018381526020016007548152602001600081526020018263ffffffff168152602001600063ffffffff168152602001600063ffffffff1681526020016001151581526020016000151581525060086000600754815260200190815260200160002060008201518160000160006101000a81548173ffffffffffffffffffffffffffffffffffffffff021916908373ffffffffffffffffffffffffffffffffffffffff16021790555060208201518160010160006101000a81548173ffffffffffffffffffffffffffffffffffffffff021916908373ffffffffffffffffffffffffffffffffffffffff16021790555060408201518160020190805190602001906137fa9291906145ba565b50606082015181600301556080820151816004015560a08201518160050160006101000a81548163ffffffff021916908363ffffffff16021790555060c08201518160050160046101000a81548163ffffffff021916908363ffffffff16021790555060e08201518160050160086101000a81548163ffffffff021916908363ffffffff16021790555061010082015181600501600c6101000a81548160ff02191690831515021790555061012082015181600501600d6101000a81548160ff0219169083151502179055509050506138d533600754614148565b5050565b6000600560008473ffffffffffffffffffffffffffffffffffffffff1673ffffffffffffffffffffffffffffffffffffffff16815260200190815260200160002060008373ffffffffffffffffffffffffffffffffffffffff1673ffffffffffffffffffffffffffffffffffffffff16815260200190815260200160002060009054906101000a900460ff16905092915050565b60007f01ffc9a7000000000000000000000000000000000000000000000000000000007bffffffffffffffffffffffffffffffffffffffffffffffffffffffff1916827bffffffffffffffffffffffffffffffffffffffffffffffffffffffff1916149050919050565b6139e081614166565b613a1f576040517f08c379a0000000000000000000000000000000000000000000000000000000008152600401613a169061528a565b60405180910390fd5b50565b600033905090565b816004600083815260200190815260200160002060006101000a81548173ffffffffffffffffffffffffffffffffffffffff021916908373ffffffffffffffffffffffffffffffffffffffff160217905550808273ffffffffffffffffffffffffffffffffffffffff16613a9d83611177565b73ffffffffffffffffffffffffffffffffffffffff167f8c5be1e5ebec7d5bd14f71427d1e84f3dd0314c0f7b2291e5b200ac8c7c3b92560405160405180910390a45050565b600080613aef83611177565b90508073ffffffffffffffffffffffffffffffffffffffff168473ffffffffffffffffffffffffffffffffffffffff161480613b315750613b3081856138d9565b5b80613b6f57508373ffffffffffffffffffffffffffffffffffffffff16613b578461074a565b73ffffffffffffffffffffffffffffffffffffffff16145b91505092915050565b8273ffffffffffffffffffffffffffffffffffffffff16613b9882611177565b73ffffffffffffffffffffffffffffffffffffffff1614613bee576040517f08c379a0000000000000000000000000000000000000000000000000000000008152600401613be59061580a565b60405180910390fd5b600073ffffffffffffffffffffffffffffffffffffffff168273ffffffffffffffffffffffffffffffffffffffff1603613c5d576040517f08c379a0000000000000000000000000000000000000000000000000000000008152600401613c549061589c565b60405180910390fd5b613c688383836141d2565b6004600082815260200190815260200160002060006101000a81549073ffffffffffffffffffffffffffffffffffffffff02191690556001600360008573ffffffffffffffffffffffffffffffffffffffff1673ffffffffffffffffffffffffffffffffffffffff1681526020019081526020016000206000828254613cee91906158bc565b925050819055506001600360008473ffffffffffffffffffffffffffffffffffffffff1673ffffffffffffffffffffffffffffffffffffffff1681526020019081526020016000206000828254613d45919061569a565b92505081905550816002600083815260200190815260200160002060006101000a81548173ffffffffffffffffffffffffffffffffffffffff021916908373ffffffffffffffffffffffffffffffffffffffff160217905550808273ffffffffffffffffffffffffffffffffffffffff168473ffffffffffffffffffffffffffffffffffffffff167fddf252ad1be2c89b69c2b068fc378daa952ba7f163c4a11628f55a4df523b3ef60405160405180910390a4613e048383836141d7565b505050565b8173ffffffffffffffffffffffffffffffffffffffff168373ffffffffffffffffffffffffffffffffffffffff1603613e77576040517f08c379a0000000000000000000000000000000000000000000000000000000008152600401613e6e9061593c565b60405180910390fd5b80600560008573ffffffffffffffffffffffffffffffffffffffff1673ffffffffffffffffffffffffffffffffffffffff16815260200190815260200160002060008473ffffffffffffffffffffffffffffffffffffffff1673ffffffffffffffffffffffffffffffffffffffff16815260200190815260200160002060006101000a81548160ff0219169083151502179055508173ffffffffffffffffffffffffffffffffffffffff168373ffffffffffffffffffffffffffffffffffffffff167f17307eab39ab6107e8899845ad3d59bd9653f200f220920489ca2b5937696c3183604051613f689190614711565b60405180910390a3505050565b613f80848484613b78565b613f8c848484846141dc565b613fcb576040517f08c379a0000000000000000000000000000000000000000000000000000000008152600401613fc2906159ce565b60405180910390fd5b50505050565b606060405180602001604052806000815250905090565b60606000820361402f576040518060400160405280600181526020017f30000000000000000000000000000000000000000000000000000000000000008152509050614143565b600082905060005b6000821461406157808061404a90615750565b915050600a8261405a9190615a1d565b9150614037565b60008167ffffffffffffffff81111561407d5761407c614be6565b5b6040519080825280601f01601f1916602001820160405280156140af5781602001600182028036833780820191505090505b5090505b6000851461413c576001826140c891906158bc565b9150600a856140d79190615a4e565b60306140e3919061569a565b60f81b8183815181106140f9576140f8615a7f565b5b60200101907effffffffffffffffffffffffffffffffffffffffffffffffffffffffffffff1916908160001a905350600a856141359190615a1d565b94506140b3565b8093505050505b919050565b614162828260405180602001604052806000815250614363565b5050565b60008073ffffffffffffffffffffffffffffffffffffffff166002600084815260200190815260200160002060009054906101000a900473ffffffffffffffffffffffffffffffffffffffff1673ffffffffffffffffffffffffffffffffffffffff1614159050919050565b505050565b505050565b60006141fd8473ffffffffffffffffffffffffffffffffffffffff166143be565b15614356578373ffffffffffffffffffffffffffffffffffffffff1663150b7a02614226613a22565b8786866040518563ffffffff1660e01b81526004016142489493929190615b03565b6020604051808303816000875af192505050801561428457506040513d601f19601f820116820180604052508101906142819190615b64565b60015b614306573d80600081146142b4576040519150601f19603f3d011682016040523d82523d6000602084013e6142b9565b606091505b5060008151036142fe576040517f08c379a00000000000000000000000000000000000000000000000000000000081526004016142f5906159ce565b60405180910390fd5b805181602001fd5b63150b7a0260e01b7bffffffffffffffffffffffffffffffffffffffffffffffffffffffff1916817bffffffffffffffffffffffffffffffffffffffffffffffffffffffff19161491505061435b565b600190505b949350505050565b61436d83836143e1565b61437a60008484846141dc565b6143b9576040517f08c379a00000000000000000000000000000000000000000000000000000000081526004016143b0906159ce565b60405180910390fd5b505050565b6000808273ffffffffffffffffffffffffffffffffffffffff163b119050919050565b600073ffffffffffffffffffffffffffffffffffffffff168273ffffffffffffffffffffffffffffffffffffffff1603614450576040517f08c379a000000000000000000000000000000000000000000000000000000000815260040161444790615bdd565b60405180910390fd5b61445981614166565b15614499576040517f08c379a000000000000000000000000000000000000000000000000000000000815260040161449090615c49565b60405180910390fd5b6144a5600083836141d2565b6001600360008473ffffffffffffffffffffffffffffffffffffffff1673ffffffffffffffffffffffffffffffffffffffff16815260200190815260200160002060008282546144f5919061569a565b92505081905550816002600083815260200190815260200160002060006101000a81548173ffffffffffffffffffffffffffffffffffffffff021916908373ffffffffffffffffffffffffffffffffffffffff160217905550808273ffffffffffffffffffffffffffffffffffffffff16600073ffffffffffffffffffffffffffffffffffffffff167fddf252ad1be2c89b69c2b068fc378daa952ba7f163c4a11628f55a4df523b3ef60405160405180910390a46145b6600083836141d7565b5050565b8280546145c690614eed565b90600052602060002090601f0160209004810192826145e8576000855561462f565b82601f1061460157805160ff191683800117855561462f565b8280016001018555821561462f579182015b8281111561462e578251825591602001919060010190614613565b5b50905061463c9190614640565b5090565b5b80821115614659576000816000905550600101614641565b5090565b6000604051905090565b600080fd5b600080fd5b60007fffffffff0000000000000000000000000000000000000000000000000000000082169050919050565b6146a681614671565b81146146b157600080fd5b50565b6000813590506146c38161469d565b92915050565b6000602082840312156146df576146de614667565b5b60006146ed848285016146b4565b91505092915050565b60008115159050919050565b61470b816146f6565b82525050565b60006020820190506147266000830184614702565b92915050565b600081519050919050565b600082825260208201905092915050565b60005b8381101561476657808201518184015260208101905061474b565b83811115614775576000848401525b50505050565b6000601f19601f8301169050919050565b60006147978261472c565b6147a18185614737565b93506147b1818560208601614748565b6147ba8161477b565b840191505092915050565b600060208201905081810360008301526147df818461478c565b905092915050565b6000819050919050565b6147fa816147e7565b811461480557600080fd5b50565b600081359050614817816147f1565b92915050565b60006020828403121561483357614832614667565b5b600061484184828501614808565b91505092915050565b600073ffffffffffffffffffffffffffffffffffffffff82169050919050565b60006148758261484a565b9050919050565b6148858161486a565b82525050565b60006020820190506148a0600083018461487c565b92915050565b6148af8161486a565b81146148ba57600080fd5b50565b6000813590506148cc816148a6565b92915050565b600080604083850312156148e9576148e8614667565b5b60006148f7858286016148bd565b925050602061490885828601614808565b9150509250929050565b61491b816147e7565b82525050565b600061492c8261484a565b9050919050565b61493c81614921565b82525050565b60006040820190506149576000830185614912565b6149646020830184614933565b9392505050565b60006020820190506149806000830184614912565b92915050565b60008060006060848603121561499f5761499e614667565b5b60006149ad868287016148bd565b93505060206149be868287016148bd565b92505060406149cf86828701614808565b9150509250925092565b6000602082840312156149ef576149ee614667565b5b60006149fd848285016148bd565b91505092915050565b600063ffffffff82169050919050565b614a1f81614a06565b82525050565b600061014082019050614a3b600083018d61487c565b614a48602083018c61487c565b8181036040830152614a5a818b61478c565b9050614a69606083018a614912565b614a766080830189614912565b614a8360a0830188614a16565b614a9060c0830187614a16565b614a9d60e0830186614a16565b614aab610100830185614702565b614ab9610120830184614702565b9b9a5050505050505050505050565b6000604082019050614add6000830185614912565b614aea602083018461487c565b9392505050565b614afa81614a06565b8114614b0557600080fd5b50565b600081359050614b1781614af1565b92915050565b600080600060608486031215614b3657614b35614667565b5b6000614b4486828701614808565b9350506020614b5586828701614808565b9250506040614b6686828701614b08565b9150509250925092565b614b79816146f6565b8114614b8457600080fd5b50565b600081359050614b9681614b70565b92915050565b60008060408385031215614bb357614bb2614667565b5b6000614bc1858286016148bd565b9250506020614bd285828601614b87565b9150509250929050565b600080fd5b600080fd5b7f4e487b7100000000000000000000000000000000000000000000000000000000600052604160045260246000fd5b614c1e8261477b565b810181811067ffffffffffffffff82111715614c3d57614c3c614be6565b5b80604052505050565b6000614c5061465d565b9050614c5c8282614c15565b919050565b600067ffffffffffffffff821115614c7c57614c7b614be6565b5b614c858261477b565b9050602081019050919050565b82818337600083830152505050565b6000614cb4614caf84614c61565b614c46565b905082815260208101848484011115614cd057614ccf614be1565b5b614cdb848285614c92565b509392505050565b600082601f830112614cf857614cf7614bdc565b5b8135614d08848260208601614ca1565b91505092915050565b60008060008060808587031215614d2b57614d2a614667565b5b6000614d39878288016148bd565b9450506020614d4a878288016148bd565b9350506040614d5b87828801614808565b925050606085013567ffffffffffffffff811115614d7c57614d7b61466c565b5b614d8887828801614ce3565b91505092959194509250565b600067ffffffffffffffff821115614daf57614dae614be6565b5b614db88261477b565b9050602081019050919050565b6000614dd8614dd384614d94565b614c46565b905082815260208101848484011115614df457614df3614be1565b5b614dff848285614c92565b509392505050565b600082601f830112614e1c57614e1b614bdc565b5b8135614e2c848260208601614dc5565b91505092915050565b600060208284031215614e4b57614e4a614667565b5b600082013567ffffffffffffffff811115614e6957614e6861466c565b5b614e7584828501614e07565b91505092915050565b60008060408385031215614e9557614e94614667565b5b6000614ea3858286016148bd565b9250506020614eb4858286016148bd565b9150509250929050565b7f4e487b7100000000000000000000000000000000000000000000000000000000600052602260045260246000fd5b60006002820490506001821680614f0557607f821691505b602082108103614f1857614f17614ebe565b5b50919050565b7f4552433732313a20617070726f76616c20746f2063757272656e74206f776e6560008201527f7200000000000000000000000000000000000000000000000000000000000000602082015250565b6000614f7a602183614737565b9150614f8582614f1e565b604082019050919050565b60006020820190508181036000830152614fa981614f6d565b9050919050565b7f4552433732313a20617070726f76652063616c6c6572206973206e6f7420746f60008201527f6b656e206f776e6572206e6f7220617070726f76656420666f7220616c6c0000602082015250565b600061500c603e83614737565b915061501782614fb0565b604082019050919050565b6000602082019050818103600083015261503b81614fff565b9050919050565b7f4552433732313a2063616c6c6572206973206e6f7420746f6b656e206f776e6560008201527f72206e6f7220617070726f766564000000000000000000000000000000000000602082015250565b600061509e602e83614737565b91506150a982615042565b604082019050919050565b600060208201905081810360008301526150cd81615091565b9050919050565b7f546f6b656e20496420646f6573206e6f742065786973742e0000000000000000600082015250565b600061510a601883614737565b9150615115826150d4565b602082019050919050565b60006020820190508181036000830152615139816150fd565b9050919050565b7f416363657373206279206f6e6c79204f776e6572206f66204e46542e00000000600082015250565b6000615176601c83614737565b915061518182615140565b602082019050919050565b600060208201905081810360008301526151a581615169565b9050919050565b7f41756374696f6e207374696c6c2072756e6e696e6720636865636b206166746560008201527f722061756374696f6e20656e64732e0000000000000000000000000000000000602082015250565b6000615208602f83614737565b9150615213826151ac565b604082019050919050565b60006020820190508181036000830152615237816151fb565b9050919050565b7f4552433732313a20696e76616c696420746f6b656e2049440000000000000000600082015250565b6000615274601883614737565b915061527f8261523e565b602082019050919050565b600060208201905081810360008301526152a381615267565b9050919050565b7f4552433732313a2061646472657373207a65726f206973206e6f74206120766160008201527f6c6964206f776e65720000000000000000000000000000000000000000000000602082015250565b6000615306602983614737565b9150615311826152aa565b604082019050919050565b60006020820190508181036000830152615335816152f9565b9050919050565b7f41756374696f6e206e6f742073746172746564207965742e0000000000000000600082015250565b6000615372601883614737565b915061537d8261533c565b602082019050919050565b600060208201905081810360008301526153a181615365565b9050919050565b7f4e487b7100000000000000000000000000000000000000000000000000000000600052601160045260246000fd5b60006153e2826147e7565b91506153ed836147e7565b9250817fffffffffffffffffffffffffffffffffffffffffffffffffffffffffffffffff0483118215151615615426576154256153a8565b5b828202905092915050565b600061543c82614a06565b915061544783614a06565b92508263ffffffff038211156154605761545f6153a8565b5b828201905092915050565b60008190508160005260206000209050919050565b6000815461548d81614eed565b6154978186614737565b945060018216600081146154b257600181146154c4576154f7565b60ff19831686526020860193506154f7565b6154cd8561546b565b60005b838110156154ef578154818901526001820191506020810190506154d0565b808801955050505b50505092915050565b60006040820190506155156000830185614912565b81810360208301526155278184615480565b90509392505050565b7f43757272656e74204f776e65722063616e206e6f74206269642e000000000000600082015250565b6000615566601a83614737565b915061557182615530565b602082019050919050565b6000602082019050818103600083015261559581615559565b9050919050565b7f42696420616d6f756e74206973206c657373207468616e206d696e696d756d2060008201527f616d6f756e742e00000000000000000000000000000000000000000000000000602082015250565b60006155f8602783614737565b91506156038261559c565b604082019050919050565b60006020820190508181036000830152615627816155eb565b9050919050565b7f426964696e672074696d6520706572696f6420656e64732e0000000000000000600082015250565b6000615664601883614737565b915061566f8261562e565b602082019050919050565b6000602082019050818103600083015261569381615657565b9050919050565b60006156a5826147e7565b91506156b0836147e7565b9250827fffffffffffffffffffffffffffffffffffffffffffffffffffffffffffffffff038211156156e5576156e46153a8565b5b828201905092915050565b600081905092915050565b60006157068261472c565b61571081856156f0565b9350615720818560208601614748565b80840191505092915050565b600061573882856156fb565b915061574482846156fb565b91508190509392505050565b600061575b826147e7565b91507fffffffffffffffffffffffffffffffffffffffffffffffffffffffffffffffff820361578d5761578c6153a8565b5b600182019050919050565b7f4552433732313a207472616e736665722066726f6d20696e636f72726563742060008201527f6f776e6572000000000000000000000000000000000000000000000000000000602082015250565b60006157f4602583614737565b91506157ff82615798565b604082019050919050565b60006020820190508181036000830152615823816157e7565b9050919050565b7f4552433732313a207472616e7366657220746f20746865207a65726f2061646460008201527f7265737300000000000000000000000000000000000000000000000000000000602082015250565b6000615886602483614737565b91506158918261582a565b604082019050919050565b600060208201905081810360008301526158b581615879565b9050919050565b60006158c7826147e7565b91506158d2836147e7565b9250828210156158e5576158e46153a8565b5b828203905092915050565b7f4552433732313a20617070726f766520746f2063616c6c657200000000000000600082015250565b6000615926601983614737565b9150615931826158f0565b602082019050919050565b6000602082019050818103600083015261595581615919565b9050919050565b7f4552433732313a207472616e7366657220746f206e6f6e20455243373231526560008201527f63656976657220696d706c656d656e7465720000000000000000000000000000602082015250565b60006159b8603283614737565b91506159c38261595c565b604082019050919050565b600060208201905081810360008301526159e7816159ab565b9050919050565b7f4e487b7100000000000000000000000000000000000000000000000000000000600052601260045260246000fd5b6000615a28826147e7565b9150615a33836147e7565b925082615a4357615a426159ee565b5b828204905092915050565b6000615a59826147e7565b9150615a64836147e7565b925082615a7457615a736159ee565b5b828206905092915050565b7f4e487b7100000000000000000000000000000000000000000000000000000000600052603260045260246000fd5b600081519050919050565b600082825260208201905092915050565b6000615ad582615aae565b615adf8185615ab9565b9350615aef818560208601614748565b615af88161477b565b840191505092915050565b6000608082019050615b18600083018761487c565b615b25602083018661487c565b615b326040830185614912565b8181036060830152615b448184615aca565b905095945050505050565b600081519050615b5e8161469d565b92915050565b600060208284031215615b7a57615b79614667565b5b6000615b8884828501615b4f565b91505092915050565b7f4552433732313a206d696e7420746f20746865207a65726f2061646472657373600082015250565b6000615bc7602083614737565b9150615bd282615b91565b602082019050919050565b60006020820190508181036000830152615bf681615bba565b9050919050565b7f4552433732313a20746f6b656e20616c7265616479206d696e74656400000000600082015250565b6000615c33601c83614737565b9150615c3e82615bfd565b602082019050919050565b60006020820190508181036000830152615c6281615c26565b905091905056fea264697066735822122068ee95c7c8cfa1c037f2fafdd352f3a0d644e5bc0b418c662c9bebb5ca683d1a64736f6c634300080e0033",
  "immutableReferences": {},
  "source": "//SPDX-License-Identifier: MIT\r\npragma solidity ^0.8.0;\r\n\r\nimport \"../node_modules/openzeppelin-contracts-master/contracts/token/ERC721/ERC721.sol\";\r\n\r\ncontract NFT is ERC721 {\r\n    event AuctionStarted(\r\n        address indexed _owner,\r\n        uint256 _tokenId,\r\n        string _name\r\n    );\r\n\r\n    struct itemsDetails {\r\n        address payable currentOwner;\r\n        address payable previousOwner;\r\n        string name;\r\n        uint256 tokenId;\r\n        uint256 miniBid;\r\n        uint32 mintTime;\r\n        uint32 time;\r\n        uint32 timePeriod;\r\n        bool exists;\r\n        bool auctionStart;\r\n    }\r\n\r\n    struct bider {\r\n        uint256 bidAmnt;\r\n        address payable biderAddress;\r\n    }\r\n\r\n    address public owner;\r\n\r\n    uint256 tokenIds;\r\n\r\n    mapping(uint256 => itemsDetails) items;\r\n    mapping(uint256 => bider) public biders;\r\n    mapping(uint256 => mapping(address => uint256)) fundByBiders;\r\n\r\n    constructor(string memory _name, string memory _symbol)\r\n        ERC721(_name, _symbol)\r\n    {\r\n        owner = msg.sender;\r\n    }\r\n\r\n    modifier onlyNFTowner(uint256 _tokenId) {\r\n        itemsDetails memory _itemsDetails = items[_tokenId];\r\n        require(\r\n            msg.sender == _itemsDetails.currentOwner,\r\n            \"Access by only Owner of NFT.\"\r\n        );\r\n        _;\r\n    }\r\n\r\n    modifier notNFTowner(uint256 _tokenId) {\r\n        itemsDetails memory _itemsDetails = items[_tokenId];\r\n        require(\r\n            msg.sender != _itemsDetails.currentOwner,\r\n            \"Current Owner can not bid.\"\r\n        );\r\n        _;\r\n    }\r\n\r\n    modifier miniBidAmt(uint256 _tokenId) {\r\n        itemsDetails memory _itemsDetails = items[_tokenId];\r\n        require(\r\n            msg.value > _itemsDetails.miniBid,\r\n            \"Bid amount is less than minimum amount.\"\r\n        );\r\n        _;\r\n    }\r\n\r\n    modifier tokenExists(uint256 _tokenId) {\r\n        itemsDetails memory _itemsDetails = items[_tokenId];\r\n        require(_itemsDetails.exists, \"Token Id does not exist.\");\r\n        _;\r\n    }\r\n\r\n    modifier auctionStarted(uint256 _tokenId) {\r\n        itemsDetails memory _itemsDetails = items[_tokenId];\r\n        require(_itemsDetails.auctionStart, \"Auction not started yet.\");\r\n        _;\r\n    }\r\n\r\n    function mint(string memory _name) public {\r\n        uint32 timenow = uint32(block.timestamp);\r\n        tokenIds++;\r\n        items[tokenIds] = itemsDetails(\r\n            payable(msg.sender),\r\n            payable(0x0),\r\n            _name,\r\n            tokenIds,\r\n            0,\r\n            timenow,\r\n            0,\r\n            0,\r\n            true,\r\n            false\r\n        );\r\n        _safeMint(msg.sender, tokenIds);\r\n    }\r\n\r\n    function getItemDetails(uint256 _tokenId)\r\n        public\r\n        view\r\n        tokenExists(_tokenId)\r\n        returns (\r\n            address currentOwner,\r\n            address previousOwner,\r\n            string memory name,\r\n            uint256 tokenId,\r\n            uint256 miniBid,\r\n            uint32 mintTime,\r\n            uint32 time,\r\n            uint32 timePeriod,\r\n            bool exists,\r\n            bool auctionStart\r\n        )\r\n    {\r\n        itemsDetails memory _itemsDetails = items[_tokenId];\r\n        return (\r\n            _itemsDetails.currentOwner,\r\n            _itemsDetails.previousOwner,\r\n            _itemsDetails.name,\r\n            _itemsDetails.tokenId,\r\n            _itemsDetails.miniBid,\r\n            _itemsDetails.mintTime,\r\n            _itemsDetails.time,\r\n            _itemsDetails.timePeriod,\r\n            _itemsDetails.exists,\r\n            _itemsDetails.auctionStart\r\n        );\r\n    }\r\n\r\n    function startAuction(\r\n        uint256 _tokenId,\r\n        uint256 _minBid,\r\n        uint32 _timePeriod\r\n    ) public tokenExists(_tokenId) onlyNFTowner(_tokenId) {\r\n        itemsDetails storage _itemsDetails = items[_tokenId];\r\n        uint32 timenow = uint32(block.timestamp);\r\n\r\n        _itemsDetails.miniBid = _minBid * 10**18;\r\n        _itemsDetails.time = timenow;\r\n        _itemsDetails.timePeriod = _itemsDetails.time + _timePeriod;\r\n        _itemsDetails.auctionStart = true;\r\n        emit AuctionStarted(\r\n            _itemsDetails.currentOwner,\r\n            _itemsDetails.tokenId,\r\n            _itemsDetails.name\r\n        );\r\n    }\r\n\r\n    function placeBid(uint256 _tokenId)\r\n        public\r\n        payable\r\n        tokenExists(_tokenId)\r\n        auctionStarted(_tokenId)\r\n        notNFTowner(_tokenId)\r\n        miniBidAmt(_tokenId)\r\n        returns (bool success)\r\n    {\r\n        if (msg.value == 0) revert();\r\n\r\n        bider storage _bider = biders[_tokenId];\r\n        itemsDetails storage _itemDetails = items[_tokenId];\r\n\r\n        if (block.timestamp > _itemDetails.timePeriod)\r\n            revert(\"Biding time period ends.\");\r\n\r\n        uint256 newBid = fundByBiders[_tokenId][msg.sender] + msg.value;\r\n\r\n        if (newBid <= _bider.bidAmnt) revert();\r\n\r\n        if (msg.sender != _bider.biderAddress) {\r\n            _bider.biderAddress = payable(msg.sender);\r\n        }\r\n        fundByBiders[_tokenId][msg.sender] = newBid;\r\n        _bider.bidAmnt = newBid;\r\n        return true;\r\n    }\r\n\r\n    function auctionResult(uint256 _tokenId)\r\n        public\r\n        view\r\n        tokenExists(_tokenId)\r\n        auctionStarted(_tokenId)\r\n        returns (uint256, address)\r\n    {\r\n        bider memory _bider = biders[_tokenId];\r\n        itemsDetails memory _itemDetails = items[_tokenId];\r\n\r\n        if (block.timestamp < _itemDetails.timePeriod)\r\n            revert(\"Auction still running check after auction ends.\");\r\n        return (_bider.bidAmnt, _bider.biderAddress);\r\n    }\r\n\r\n    function transferNFT(uint256 _tokenId)\r\n        public\r\n        tokenExists(_tokenId)\r\n        onlyNFTowner(_tokenId)\r\n        returns (bool)\r\n    {\r\n        bider storage _bider = biders[_tokenId];\r\n        itemsDetails storage _itemDetails = items[_tokenId];\r\n        if (block.timestamp < _itemDetails.timePeriod)\r\n            revert(\"Auction still running check after auction ends.\");\r\n        safeTransferFrom(\r\n            _itemDetails.currentOwner,\r\n            _bider.biderAddress,\r\n            _tokenId\r\n        );\r\n        (_itemDetails.currentOwner).transfer(_bider.bidAmnt);\r\n        _itemDetails.previousOwner = _itemDetails.currentOwner;\r\n        _itemDetails.currentOwner = _bider.biderAddress;\r\n        _itemDetails.auctionStart = false;\r\n        fundByBiders[_tokenId][_itemDetails.currentOwner] = 0;\r\n        _bider.bidAmnt = 0;\r\n        _bider.biderAddress = payable(0x0);\r\n        return true;\r\n    }\r\n\r\n    function withdrawal(uint256 _tokenId) public tokenExists(_tokenId) {\r\n        if (fundByBiders[_tokenId][msg.sender] < 1) revert();\r\n        payable(msg.sender).transfer(fundByBiders[_tokenId][msg.sender]);\r\n    }\r\n\r\n    function getBalance()public view returns(uint){\r\n        return address(this).balance;\r\n    }\r\n}\r\n",
  "sourcePath": "C:\\Users\\Neosoft\\Desktop\\NeoSoft\\Assignments\\NFT-MarketPlace\\contracts\\NFT.sol",
  "compiler": {
    "name": "solc",
    "version": "0.8.14+commit.80d49f37.Emscripten.clang"
  },
  "schemaVersion": "3.4.7",
  "updatedAt": "2022-07-06T12:44:35.633Z",
  "devdoc": {
    "kind": "dev",
    "methods": {
      "approve(address,uint256)": {
        "details": "See {IERC721-approve}."
      },
      "balanceOf(address)": {
        "details": "See {IERC721-balanceOf}."
      },
      "getApproved(uint256)": {
        "details": "See {IERC721-getApproved}."
      },
      "isApprovedForAll(address,address)": {
        "details": "See {IERC721-isApprovedForAll}."
      },
      "name()": {
        "details": "See {IERC721Metadata-name}."
      },
      "ownerOf(uint256)": {
        "details": "See {IERC721-ownerOf}."
      },
      "safeTransferFrom(address,address,uint256)": {
        "details": "See {IERC721-safeTransferFrom}."
      },
      "safeTransferFrom(address,address,uint256,bytes)": {
        "details": "See {IERC721-safeTransferFrom}."
      },
      "setApprovalForAll(address,bool)": {
        "details": "See {IERC721-setApprovalForAll}."
      },
      "supportsInterface(bytes4)": {
        "details": "See {IERC165-supportsInterface}."
      },
      "symbol()": {
        "details": "See {IERC721Metadata-symbol}."
      },
      "tokenURI(uint256)": {
        "details": "See {IERC721Metadata-tokenURI}."
      },
      "transferFrom(address,address,uint256)": {
        "details": "See {IERC721-transferFrom}."
      }
    },
    "version": 1
  },
  "userdoc": {
    "kind": "user",
    "methods": {},
    "version": 1
  }
}